{
  "contractName": "Health",
  "abi": [
    {
      "constant": true,
      "inputs": [
        {
          "name": "",
          "type": "uint256"
        }
      ],
      "name": "patientsArray",
      "outputs": [
        {
          "name": "",
          "type": "address"
        }
      ],
      "payable": false,
      "stateMutability": "view",
      "type": "function"
    },
    {
      "constant": true,
      "inputs": [
        {
          "name": "",
          "type": "address"
        }
      ],
      "name": "docters",
      "outputs": [
        {
          "name": "exist",
          "type": "bool"
        },
        {
          "name": "name",
          "type": "string"
        }
      ],
      "payable": false,
      "stateMutability": "view",
      "type": "function"
    },
    {
      "constant": true,
      "inputs": [
        {
          "name": "",
          "type": "uint256"
        }
      ],
      "name": "doctersArray",
      "outputs": [
        {
          "name": "",
          "type": "address"
        }
      ],
      "payable": false,
      "stateMutability": "view",
      "type": "function"
    },
    {
      "inputs": [],
      "payable": false,
      "stateMutability": "nonpayable",
      "type": "constructor"
    },
    {
      "constant": false,
      "inputs": [
        {
          "name": "_addr",
          "type": "address"
        },
        {
          "name": "_name",
          "type": "string"
        }
      ],
      "name": "addDocter",
      "outputs": [
        {
          "name": "",
          "type": "bool"
        }
      ],
      "payable": false,
      "stateMutability": "nonpayable",
      "type": "function"
    },
    {
      "constant": false,
      "inputs": [
        {
          "name": "_addr",
          "type": "address"
        }
      ],
      "name": "removeDocter",
      "outputs": [
        {
          "name": "",
          "type": "bool"
        }
      ],
      "payable": false,
      "stateMutability": "nonpayable",
      "type": "function"
    },
    {
      "constant": false,
      "inputs": [
        {
          "name": "_name",
          "type": "string"
        },
        {
          "name": "_DOB",
          "type": "string"
        },
        {
          "name": "_gender",
          "type": "string"
        }
      ],
      "name": "registerPatient",
      "outputs": [
        {
          "name": "",
          "type": "bool"
        }
      ],
      "payable": false,
      "stateMutability": "nonpayable",
      "type": "function"
    },
    {
      "constant": false,
      "inputs": [
        {
          "name": "_addr",
          "type": "address"
        }
      ],
      "name": "giveCreateOnlyAccessToDocter",
      "outputs": [
        {
          "name": "",
          "type": "bool"
        }
      ],
      "payable": false,
      "stateMutability": "nonpayable",
      "type": "function"
    },
    {
      "constant": false,
      "inputs": [
        {
          "name": "_addr",
          "type": "address"
        }
      ],
      "name": "revokeCreateOnlyAccessToDocter",
      "outputs": [
        {
          "name": "",
          "type": "bool"
        }
      ],
      "payable": false,
      "stateMutability": "nonpayable",
      "type": "function"
    },
    {
      "constant": false,
      "inputs": [
        {
          "name": "_addr",
          "type": "address"
        }
      ],
      "name": "giveViewOnlyAccessToDocter",
      "outputs": [
        {
          "name": "",
          "type": "bool"
        }
      ],
      "payable": false,
      "stateMutability": "nonpayable",
      "type": "function"
    },
    {
      "constant": false,
      "inputs": [
        {
          "name": "_addr",
          "type": "address"
        }
      ],
      "name": "revokeViewOnlyAccessToDocter",
      "outputs": [
        {
          "name": "",
          "type": "bool"
        }
      ],
      "payable": false,
      "stateMutability": "nonpayable",
      "type": "function"
    },
    {
      "constant": false,
      "inputs": [
        {
          "name": "_addr",
          "type": "address"
        },
        {
          "name": "_prescription",
          "type": "string"
        },
        {
          "name": "_visitDate",
          "type": "string"
        },
        {
          "name": "_additionalNotes",
          "type": "string"
        },
        {
          "name": "_fromPlace",
          "type": "string"
        }
      ],
      "name": "addPrescriptionForPatient",
      "outputs": [
        {
          "name": "",
          "type": "bool"
        }
      ],
      "payable": false,
      "stateMutability": "nonpayable",
      "type": "function"
    },
    {
      "constant": true,
      "inputs": [],
      "name": "getDoctersCount",
      "outputs": [
        {
          "name": "count",
          "type": "uint256"
        }
      ],
      "payable": false,
      "stateMutability": "view",
      "type": "function"
    },
    {
      "constant": true,
      "inputs": [],
      "name": "getPatientsCount",
      "outputs": [
        {
          "name": "count",
          "type": "uint256"
        }
      ],
      "payable": false,
      "stateMutability": "view",
      "type": "function"
    },
    {
      "constant": true,
      "inputs": [],
      "name": "getPatientsWithCreateOnlyAccess",
      "outputs": [
        {
          "name": "_patients",
          "type": "address[]"
        }
      ],
      "payable": false,
      "stateMutability": "view",
      "type": "function"
    },
    {
      "constant": true,
      "inputs": [],
      "name": "getPatientsWithViewOnlyAccess",
      "outputs": [
        {
          "name": "_patients",
          "type": "address[]"
        }
      ],
      "payable": false,
      "stateMutability": "view",
      "type": "function"
    },
    {
      "constant": true,
      "inputs": [],
      "name": "getDoctersWithViewOnlyAccess",
      "outputs": [
        {
          "name": "_docters",
          "type": "address[]"
        }
      ],
      "payable": false,
      "stateMutability": "view",
      "type": "function"
    },
    {
      "constant": true,
      "inputs": [],
      "name": "getDoctersWithCreateOnlyAccess",
      "outputs": [
        {
          "name": "",
          "type": "address[]"
        }
      ],
      "payable": false,
      "stateMutability": "view",
      "type": "function"
    },
    {
      "constant": true,
      "inputs": [
        {
          "name": "_addr",
          "type": "address"
        }
      ],
      "name": "getPatients",
      "outputs": [
        {
          "name": "_name",
          "type": "string"
        },
        {
          "name": "_DOB",
          "type": "string"
        },
        {
          "name": "_gender",
          "type": "string"
        }
      ],
      "payable": false,
      "stateMutability": "view",
      "type": "function"
    },
    {
      "constant": true,
      "inputs": [
        {
          "name": "_addr",
          "type": "address"
        }
      ],
      "name": "getPatientsRecordsCount",
      "outputs": [
        {
          "name": "count",
          "type": "uint256"
        }
      ],
      "payable": false,
      "stateMutability": "view",
      "type": "function"
    },
    {
      "constant": true,
      "inputs": [
        {
          "name": "_addr",
          "type": "address"
        },
        {
          "name": "index",
          "type": "uint256"
        }
      ],
      "name": "getPatientsRecords",
      "outputs": [
        {
          "name": "_prescriptionData",
          "type": "string"
        },
        {
          "name": "_docterAddress",
          "type": "address"
        },
        {
          "name": "_docterName",
          "type": "string"
        },
        {
          "name": "_visitDate",
          "type": "string"
        },
        {
          "name": "_additionalNotes",
          "type": "string"
        },
        {
          "name": "_fromPlace",
          "type": "string"
        }
      ],
      "payable": false,
      "stateMutability": "view",
      "type": "function"
    }
  ],
  "bytecode": "0x608060405234801561001057600080fd5b50336000806101000a81548173ffffffffffffffffffffffffffffffffffffffff021916908373ffffffffffffffffffffffffffffffffffffffff16021790555061453a806100606000396000f3fe608060405260043610610112576000357c0100000000000000000000000000000000000000000000000000000000900463ffffffff16806306b183c6146101175780630c78a9761461018057806313575ac4146101ec5780631c736b03146102555780631eda424e146102c157806325ab55d21461033c5780633230f40e146103a55780633479f8f0146104115780635e43b7f41461047657806364b5cb681461061857806370fb977f146106435780637f1fa7341461071857806385a68c5f14610781578063a146243814610a38578063abd1826414610ab3578063be65437a14610b1f578063d4c354de14610d2d578063ebc9b2f414610e2d578063efb7d3ba14610e58578063fa6386a61461111d575b600080fd5b34801561012357600080fd5b506101666004803603602081101561013a57600080fd5b81019080803573ffffffffffffffffffffffffffffffffffffffff169060200190929190505050611186565b604051808215151515815260200191505060405180910390f35b34801561018c57600080fd5b506101956114df565b6040518080602001828103825283818151815260200191508051906020019060200280838360005b838110156101d85780820151818401526020810190506101bd565b505050509050019250505060405180910390f35b3480156101f857600080fd5b5061023b6004803603602081101561020f57600080fd5b81019080803573ffffffffffffffffffffffffffffffffffffffff169060200190929190505050611761565b604051808215151515815260200191505060405180910390f35b34801561026157600080fd5b5061026a6118e6565b6040518080602001828103825283818151815260200191508051906020019060200280838360005b838110156102ad578082015181840152602081019050610292565b505050509050019250505060405180910390f35b3480156102cd57600080fd5b506102fa600480360360208110156102e457600080fd5b8101908080359060200190929190505050611b68565b604051808273ffffffffffffffffffffffffffffffffffffffff1673ffffffffffffffffffffffffffffffffffffffff16815260200191505060405180910390f35b34801561034857600080fd5b5061038b6004803603602081101561035f57600080fd5b81019080803573ffffffffffffffffffffffffffffffffffffffff169060200190929190505050611ba6565b604051808215151515815260200191505060405180910390f35b3480156103b157600080fd5b506103ba611eff565b6040518080602001828103825283818151815260200191508051906020019060200280838360005b838110156103fd5780820151818401526020810190506103e2565b505050509050019250505060405180910390f35b34801561041d57600080fd5b506104606004803603602081101561043457600080fd5b81019080803573ffffffffffffffffffffffffffffffffffffffff169060200190929190505050612181565b6040518082815260200191505060405180910390f35b34801561048257600080fd5b506104c56004803603602081101561049957600080fd5b81019080803573ffffffffffffffffffffffffffffffffffffffff1690602001909291905050506123f4565b60405180806020018060200180602001848103845287818151815260200191508051906020019080838360005b8381101561050d5780820151818401526020810190506104f2565b50505050905090810190601f16801561053a5780820380516001836020036101000a031916815260200191505b50848103835286818151815260200191508051906020019080838360005b83811015610573578082015181840152602081019050610558565b50505050905090810190601f1680156105a05780820380516001836020036101000a031916815260200191505b50848103825285818151815260200191508051906020019080838360005b838110156105d95780820151818401526020810190506105be565b50505050905090810190601f1680156106065780820380516001836020036101000a031916815260200191505b50965050505050505060405180910390f35b34801561062457600080fd5b5061062d6128bb565b6040518082815260200191505060405180910390f35b34801561064f57600080fd5b506106926004803603602081101561066657600080fd5b81019080803573ffffffffffffffffffffffffffffffffffffffff1690602001909291905050506128c8565b604051808315151515815260200180602001828103825283818151815260200191508051906020019080838360005b838110156106dc5780820151818401526020810190506106c1565b50505050905090810190601f1680156107095780820380516001836020036101000a031916815260200191505b50935050505060405180910390f35b34801561072457600080fd5b506107676004803603602081101561073b57600080fd5b81019080803573ffffffffffffffffffffffffffffffffffffffff169060200190929190505050612991565b604051808215151515815260200191505060405180910390f35b34801561078d57600080fd5b506107da600480360360408110156107a457600080fd5b81019080803573ffffffffffffffffffffffffffffffffffffffff16906020019092919080359060200190929190505050612ce9565b60405180806020018773ffffffffffffffffffffffffffffffffffffffff1673ffffffffffffffffffffffffffffffffffffffff1681526020018060200180602001806020018060200186810386528c818151815260200191508051906020019080838360005b8381101561085c578082015181840152602081019050610841565b50505050905090810190601f1680156108895780820380516001836020036101000a031916815260200191505b5086810385528a818151815260200191508051906020019080838360005b838110156108c25780820151818401526020810190506108a7565b50505050905090810190601f1680156108ef5780820380516001836020036101000a031916815260200191505b50868103845289818151815260200191508051906020019080838360005b8381101561092857808201518184015260208101905061090d565b50505050905090810190601f1680156109555780820380516001836020036101000a031916815260200191505b50868103835288818151815260200191508051906020019080838360005b8381101561098e578082015181840152602081019050610973565b50505050905090810190601f1680156109bb5780820380516001836020036101000a031916815260200191505b50868103825287818151815260200191508051906020019080838360005b838110156109f45780820151818401526020810190506109d9565b50505050905090810190601f168015610a215780820380516001836020036101000a031916815260200191505b509b50505050505050505050505060405180910390f35b348015610a4457600080fd5b50610a7160048036036020811015610a5b57600080fd5b810190808035906020019092919050505061346d565b604051808273ffffffffffffffffffffffffffffffffffffffff1673ffffffffffffffffffffffffffffffffffffffff16815260200191505060405180910390f35b348015610abf57600080fd5b50610ac86134ab565b6040518080602001828103825283818151815260200191508051906020019060200280838360005b83811015610b0b578082015181840152602081019050610af0565b505050509050019250505060405180910390f35b348015610b2b57600080fd5b50610d1360048036036060811015610b4257600080fd5b8101908080359060200190640100000000811115610b5f57600080fd5b820183602082011115610b7157600080fd5b80359060200191846001830284011164010000000083111715610b9357600080fd5b91908080601f016020809104026020016040519081016040528093929190818152602001838380828437600081840152601f19601f82011690508083019250505050505050919291929080359060200190640100000000811115610bf657600080fd5b820183602082011115610c0857600080fd5b80359060200191846001830284011164010000000083111715610c2a57600080fd5b91908080601f016020809104026020016040519081016040528093929190818152602001838380828437600081840152601f19601f82011690508083019250505050505050919291929080359060200190640100000000811115610c8d57600080fd5b820183602082011115610c9f57600080fd5b80359060200191846001830284011164010000000083111715610cc157600080fd5b91908080601f016020809104026020016040519081016040528093929190818152602001838380828437600081840152601f19601f82011690508083019250505050505050919291929050505061372d565b604051808215151515815260200191505060405180910390f35b348015610d3957600080fd5b50610e1360048036036040811015610d5057600080fd5b81019080803573ffffffffffffffffffffffffffffffffffffffff16906020019092919080359060200190640100000000811115610d8d57600080fd5b820183602082011115610d9f57600080fd5b80359060200191846001830284011164010000000083111715610dc157600080fd5b91908080601f016020809104026020016040519081016040528093929190818152602001838380828437600081840152601f19601f8201169050808301925050505050505091929192905050506139c5565b604051808215151515815260200191505060405180910390f35b348015610e3957600080fd5b50610e42613c08565b6040518082815260200191505060405180910390f35b348015610e6457600080fd5b50611103600480360360a0811015610e7b57600080fd5b81019080803573ffffffffffffffffffffffffffffffffffffffff16906020019092919080359060200190640100000000811115610eb857600080fd5b820183602082011115610eca57600080fd5b80359060200191846001830284011164010000000083111715610eec57600080fd5b91908080601f016020809104026020016040519081016040528093929190818152602001838380828437600081840152601f19601f82011690508083019250505050505050919291929080359060200190640100000000811115610f4f57600080fd5b820183602082011115610f6157600080fd5b80359060200191846001830284011164010000000083111715610f8357600080fd5b91908080601f016020809104026020016040519081016040528093929190818152602001838380828437600081840152601f19601f82011690508083019250505050505050919291929080359060200190640100000000811115610fe657600080fd5b820183602082011115610ff857600080fd5b8035906020019184600183028401116401000000008311171561101a57600080fd5b91908080601f016020809104026020016040519081016040528093929190818152602001838380828437600081840152601f19601f8201169050808301925050505050505091929192908035906020019064010000000081111561107d57600080fd5b82018360208201111561108f57600080fd5b803590602001918460018302840111640100000000831117156110b157600080fd5b91908080601f016020809104026020016040519081016040528093929190818152602001838380828437600081840152601f19601f820116905080830192505050505050509192919290505050613c15565b604051808215151515815260200191505060405180910390f35b34801561112957600080fd5b5061116c6004803603602081101561114057600080fd5b81019080803573ffffffffffffffffffffffffffffffffffffffff16906020019092919050505061404b565b604051808215151515815260200191505060405180910390f35b6000600160008373ffffffffffffffffffffffffffffffffffffffff1673ffffffffffffffffffffffffffffffffffffffff16815260200190815260200160002060000160009054906101000a900460ff16151561124c576040517f08c379a00000000000000000000000000000000000000000000000000000000081526004018080602001828103825260158152602001807f446f6374657220646f6573206e6f74206578697374000000000000000000000081525060200191505060405180910390fd5b600260003373ffffffffffffffffffffffffffffffffffffffff1673ffffffffffffffffffffffffffffffffffffffff16815260200190815260200160002060000160009054906101000a900460ff161515611336576040517f08c379a00000000000000000000000000000000000000000000000000000000081526004018080602001828103825260358152602001807f50617469656e74207265636f726420646f6573206e6f742065786973742e506c81526020017f656173652072656769737465722066697273742121000000000000000000000081525060400191505060405180910390fd5b600260003373ffffffffffffffffffffffffffffffffffffffff1673ffffffffffffffffffffffffffffffffffffffff16815260200190815260200160002060040160008373ffffffffffffffffffffffffffffffffffffffff1673ffffffffffffffffffffffffffffffffffffffff16815260200190815260200160002060000160019054906101000a900460ff1615151561143b576040517f08c379a000000000000000000000000000000000000000000000000000000000815260040180806020018281038252601c8152602001807f446f6374657220616c726561647920686173206163636573732021210000000081525060200191505060405180910390fd5b6001600260003373ffffffffffffffffffffffffffffffffffffffff1673ffffffffffffffffffffffffffffffffffffffff16815260200190815260200160002060040160008473ffffffffffffffffffffffffffffffffffffffff1673ffffffffffffffffffffffffffffffffffffffff16815260200190815260200160002060000160016101000a81548160ff02191690831515021790555060019050919050565b6060600260003373ffffffffffffffffffffffffffffffffffffffff1673ffffffffffffffffffffffffffffffffffffffff16815260200190815260200160002060000160009054906101000a900460ff1615156115a5576040517f08c379a00000000000000000000000000000000000000000000000000000000081526004018080602001828103825260168152602001807f50617469656e74204e6f7420526567697374657265640000000000000000000081525060200191505060405180910390fd5b600060038054905090506060816040519080825280602002602001820160405280156115e05781602001602082028038833980820191505090505b50905060008090505b6115f16128bb565b81101561175857600260003373ffffffffffffffffffffffffffffffffffffffff1673ffffffffffffffffffffffffffffffffffffffff168152602001908152602001600020600401600060038381548110151561164b57fe5b9060005260206000200160009054906101000a900473ffffffffffffffffffffffffffffffffffffffff1673ffffffffffffffffffffffffffffffffffffffff1673ffffffffffffffffffffffffffffffffffffffff16815260200190815260200160002060000160009054906101000a900460ff161561174b576003818154811015156116d557fe5b9060005260206000200160009054906101000a900473ffffffffffffffffffffffffffffffffffffffff16828281518110151561170e57fe5b9060200190602002019073ffffffffffffffffffffffffffffffffffffffff16908173ffffffffffffffffffffffffffffffffffffffff16815250505b80806001019150506115e9565b50809250505090565b60008060009054906101000a900473ffffffffffffffffffffffffffffffffffffffff1673ffffffffffffffffffffffffffffffffffffffff163373ffffffffffffffffffffffffffffffffffffffff161415156117be57600080fd5b600160008373ffffffffffffffffffffffffffffffffffffffff1673ffffffffffffffffffffffffffffffffffffffff16815260200190815260200160002060000160009054906101000a900460ff161515611882576040517f08c379a00000000000000000000000000000000000000000000000000000000081526004018080602001828103825260158152602001807f446f6374657220646f6573206e6f74206578697374000000000000000000000081525060200191505060405180910390fd5b6000600160008473ffffffffffffffffffffffffffffffffffffffff1673ffffffffffffffffffffffffffffffffffffffff16815260200190815260200160002060000160006101000a81548160ff02191690831515021790555060019050919050565b6060600160003373ffffffffffffffffffffffffffffffffffffffff1673ffffffffffffffffffffffffffffffffffffffff16815260200190815260200160002060000160009054906101000a900460ff1615156119ac576040517f08c379a00000000000000000000000000000000000000000000000000000000081526004018080602001828103825260158152602001807f446f63746572204e6f742052656769737465726564000000000000000000000081525060200191505060405180910390fd5b600060048054905090506060816040519080825280602002602001820160405280156119e75781602001602082028038833980820191505090505b50905060008090505b6119f8613c08565b811015611b5f5760026000600483815481101515611a1257fe5b9060005260206000200160009054906101000a900473ffffffffffffffffffffffffffffffffffffffff1673ffffffffffffffffffffffffffffffffffffffff1673ffffffffffffffffffffffffffffffffffffffff16815260200190815260200160002060040160003373ffffffffffffffffffffffffffffffffffffffff1673ffffffffffffffffffffffffffffffffffffffff16815260200190815260200160002060000160019054906101000a900460ff1615611b5257600481815481101515611adc57fe5b9060005260206000200160009054906101000a900473ffffffffffffffffffffffffffffffffffffffff168282815181101515611b1557fe5b9060200190602002019073ffffffffffffffffffffffffffffffffffffffff16908173ffffffffffffffffffffffffffffffffffffffff16815250505b80806001019150506119f0565b50809250505090565b600481815481101515611b7757fe5b906000526020600020016000915054906101000a900473ffffffffffffffffffffffffffffffffffffffff1681565b6000600160008373ffffffffffffffffffffffffffffffffffffffff1673ffffffffffffffffffffffffffffffffffffffff16815260200190815260200160002060000160009054906101000a900460ff161515611c6c576040517f08c379a00000000000000000000000000000000000000000000000000000000081526004018080602001828103825260158152602001807f446f6374657220646f6573206e6f74206578697374000000000000000000000081525060200191505060405180910390fd5b600260003373ffffffffffffffffffffffffffffffffffffffff1673ffffffffffffffffffffffffffffffffffffffff16815260200190815260200160002060000160009054906101000a900460ff161515611d56576040517f08c379a00000000000000000000000000000000000000000000000000000000081526004018080602001828103825260358152602001807f50617469656e74207265636f726420646f6573206e6f742065786973742e506c81526020017f656173652072656769737465722066697273742121000000000000000000000081525060400191505060405180910390fd5b600260003373ffffffffffffffffffffffffffffffffffffffff1673ffffffffffffffffffffffffffffffffffffffff16815260200190815260200160002060040160008373ffffffffffffffffffffffffffffffffffffffff1673ffffffffffffffffffffffffffffffffffffffff16815260200190815260200160002060000160009054906101000a900460ff16151515611e5b576040517f08c379a000000000000000000000000000000000000000000000000000000000815260040180806020018281038252601c8152602001807f446f6374657220616c726561647920686173206163636573732021210000000081525060200191505060405180910390fd5b6001600260003373ffffffffffffffffffffffffffffffffffffffff1673ffffffffffffffffffffffffffffffffffffffff16815260200190815260200160002060040160008473ffffffffffffffffffffffffffffffffffffffff1673ffffffffffffffffffffffffffffffffffffffff16815260200190815260200160002060000160006101000a81548160ff02191690831515021790555060019050919050565b6060600160003373ffffffffffffffffffffffffffffffffffffffff1673ffffffffffffffffffffffffffffffffffffffff16815260200190815260200160002060000160009054906101000a900460ff161515611fc5576040517f08c379a00000000000000000000000000000000000000000000000000000000081526004018080602001828103825260158152602001807f446f63746572204e6f742052656769737465726564000000000000000000000081525060200191505060405180910390fd5b600060048054905090506060816040519080825280602002602001820160405280156120005781602001602082028038833980820191505090505b50905060008090505b612011613c08565b811015612178576002600060048381548110151561202b57fe5b9060005260206000200160009054906101000a900473ffffffffffffffffffffffffffffffffffffffff1673ffffffffffffffffffffffffffffffffffffffff1673ffffffffffffffffffffffffffffffffffffffff16815260200190815260200160002060040160003373ffffffffffffffffffffffffffffffffffffffff1673ffffffffffffffffffffffffffffffffffffffff16815260200190815260200160002060000160009054906101000a900460ff161561216b576004818154811015156120f557fe5b9060005260206000200160009054906101000a900473ffffffffffffffffffffffffffffffffffffffff16828281518110151561212e57fe5b9060200190602002019073ffffffffffffffffffffffffffffffffffffffff16908173ffffffffffffffffffffffffffffffffffffffff16815250505b8080600101915050612009565b50809250505090565b6000600260008373ffffffffffffffffffffffffffffffffffffffff1673ffffffffffffffffffffffffffffffffffffffff16815260200190815260200160002060000160009054906101000a900460ff16151561226d576040517f08c379a00000000000000000000000000000000000000000000000000000000081526004018080602001828103825260358152602001807f50617469656e74207265636f726420646f6573206e6f742065786973742e506c81526020017f656173652072656769737465722066697273742121000000000000000000000081525060400191505060405180910390fd5b600260008373ffffffffffffffffffffffffffffffffffffffff1673ffffffffffffffffffffffffffffffffffffffff16815260200190815260200160002060040160003373ffffffffffffffffffffffffffffffffffffffff1673ffffffffffffffffffffffffffffffffffffffff16815260200190815260200160002060000160019054906101000a900460ff168061233357503373ffffffffffffffffffffffffffffffffffffffff168273ffffffffffffffffffffffffffffffffffffffff16145b15156123a7576040517f08c379a000000000000000000000000000000000000000000000000000000000815260040180806020018281038252601a8152602001807f446f206e6f74206861732076696577206163636573732020212100000000000081525060200191505060405180910390fd5b600260008373ffffffffffffffffffffffffffffffffffffffff1673ffffffffffffffffffffffffffffffffffffffff168152602001908152602001600020600501805490509050919050565b6060806060600260008573ffffffffffffffffffffffffffffffffffffffff1673ffffffffffffffffffffffffffffffffffffffff16815260200190815260200160002060000160009054906101000a900460ff1615156124e3576040517f08c379a00000000000000000000000000000000000000000000000000000000081526004018080602001828103825260358152602001807f50617469656e74207265636f726420646f6573206e6f742065786973742e506c81526020017f656173652072656769737465722066697273742121000000000000000000000081525060400191505060405180910390fd5b600260008573ffffffffffffffffffffffffffffffffffffffff1673ffffffffffffffffffffffffffffffffffffffff16815260200190815260200160002060040160003373ffffffffffffffffffffffffffffffffffffffff1673ffffffffffffffffffffffffffffffffffffffff16815260200190815260200160002060000160019054906101000a900460ff16806125a957503373ffffffffffffffffffffffffffffffffffffffff168473ffffffffffffffffffffffffffffffffffffffff16145b151561261d576040517f08c379a00000000000000000000000000000000000000000000000000000000081526004018080602001828103825260198152602001807f446f206e6f74206861732076696577206163636573732021210000000000000081525060200191505060405180910390fd5b600260008573ffffffffffffffffffffffffffffffffffffffff1673ffffffffffffffffffffffffffffffffffffffff1681526020019081526020016000206001018054600181600116156101000203166002900480601f0160208091040260200160405190810160405280929190818152602001828054600181600116156101000203166002900480156126f35780601f106126c8576101008083540402835291602001916126f3565b820191906000526020600020905b8154815290600101906020018083116126d657829003601f168201915b50505050509250600260008573ffffffffffffffffffffffffffffffffffffffff1673ffffffffffffffffffffffffffffffffffffffff1681526020019081526020016000206003018054600181600116156101000203166002900480601f0160208091040260200160405190810160405280929190818152602001828054600181600116156101000203166002900480156127d05780601f106127a5576101008083540402835291602001916127d0565b820191906000526020600020905b8154815290600101906020018083116127b357829003601f168201915b50505050509050600260008573ffffffffffffffffffffffffffffffffffffffff1673ffffffffffffffffffffffffffffffffffffffff1681526020019081526020016000206002018054600181600116156101000203166002900480601f0160208091040260200160405190810160405280929190818152602001828054600181600116156101000203166002900480156128ad5780601f10612882576101008083540402835291602001916128ad565b820191906000526020600020905b81548152906001019060200180831161289057829003601f168201915b505050505091509193909250565b6000600380549050905090565b60016020528060005260406000206000915090508060000160009054906101000a900460ff1690806001018054600181600116156101000203166002900480601f0160208091040260200160405190810160405280929190818152602001828054600181600116156101000203166002900480156129875780601f1061295c57610100808354040283529160200191612987565b820191906000526020600020905b81548152906001019060200180831161296a57829003601f168201915b5050505050905082565b6000600160008373ffffffffffffffffffffffffffffffffffffffff1673ffffffffffffffffffffffffffffffffffffffff16815260200190815260200160002060000160009054906101000a900460ff161515612a57576040517f08c379a00000000000000000000000000000000000000000000000000000000081526004018080602001828103825260158152602001807f446f6374657220646f6573206e6f74206578697374000000000000000000000081525060200191505060405180910390fd5b600260003373ffffffffffffffffffffffffffffffffffffffff1673ffffffffffffffffffffffffffffffffffffffff16815260200190815260200160002060000160009054906101000a900460ff161515612b41576040517f08c379a00000000000000000000000000000000000000000000000000000000081526004018080602001828103825260358152602001807f50617469656e74207265636f726420646f6573206e6f742065786973742e506c81526020017f656173652072656769737465722066697273742121000000000000000000000081525060400191505060405180910390fd5b600260003373ffffffffffffffffffffffffffffffffffffffff1673ffffffffffffffffffffffffffffffffffffffff16815260200190815260200160002060040160008373ffffffffffffffffffffffffffffffffffffffff1673ffffffffffffffffffffffffffffffffffffffff16815260200190815260200160002060000160009054906101000a900460ff161515612c45576040517f08c379a000000000000000000000000000000000000000000000000000000000815260040180806020018281038252601b8152602001807f446f6374657220646f206e6f742068617320616363657373202121000000000081525060200191505060405180910390fd5b6000600260003373ffffffffffffffffffffffffffffffffffffffff1673ffffffffffffffffffffffffffffffffffffffff16815260200190815260200160002060040160008473ffffffffffffffffffffffffffffffffffffffff1673ffffffffffffffffffffffffffffffffffffffff16815260200190815260200160002060000160006101000a81548160ff02191690831515021790555060019050919050565b60606000606080606080600260008973ffffffffffffffffffffffffffffffffffffffff1673ffffffffffffffffffffffffffffffffffffffff16815260200190815260200160002060000160009054906101000a900460ff161515612ddd576040517f08c379a00000000000000000000000000000000000000000000000000000000081526004018080602001828103825260358152602001807f50617469656e74207265636f726420646f6573206e6f742065786973742e506c81526020017f656173652072656769737465722066697273742121000000000000000000000081525060400191505060405180910390fd5b600260008973ffffffffffffffffffffffffffffffffffffffff1673ffffffffffffffffffffffffffffffffffffffff16815260200190815260200160002060040160003373ffffffffffffffffffffffffffffffffffffffff1673ffffffffffffffffffffffffffffffffffffffff16815260200190815260200160002060000160019054906101000a900460ff1680612ea357503373ffffffffffffffffffffffffffffffffffffffff168873ffffffffffffffffffffffffffffffffffffffff16145b1515612f17576040517f08c379a00000000000000000000000000000000000000000000000000000000081526004018080602001828103825260198152602001807f446f206e6f74206861732076696577206163636573732021210000000000000081525060200191505060405180910390fd5b600260008973ffffffffffffffffffffffffffffffffffffffff1673ffffffffffffffffffffffffffffffffffffffff16815260200190815260200160002060050187815481101515612f6657fe5b90600052602060002090600502016000018054600181600116156101000203166002900480601f01602080910402602001604051908101604052809291908181526020018280546001816001161561010002031660029004801561300b5780601f10612fe05761010080835404028352916020019161300b565b820191906000526020600020905b815481529060010190602001808311612fee57829003601f168201915b50505050509550600260008973ffffffffffffffffffffffffffffffffffffffff1673ffffffffffffffffffffffffffffffffffffffff1681526020019081526020016000206005018781548110151561306157fe5b906000526020600020906005020160010160009054906101000a900473ffffffffffffffffffffffffffffffffffffffff169450600160008673ffffffffffffffffffffffffffffffffffffffff1673ffffffffffffffffffffffffffffffffffffffff1681526020019081526020016000206001018054600181600116156101000203166002900480601f01602080910402602001604051908101604052809291908181526020018280546001816001161561010002031660029004801561316b5780601f106131405761010080835404028352916020019161316b565b820191906000526020600020905b81548152906001019060200180831161314e57829003601f168201915b50505050509350600260008973ffffffffffffffffffffffffffffffffffffffff1673ffffffffffffffffffffffffffffffffffffffff168152602001908152602001600020600501878154811015156131c157fe5b90600052602060002090600502016002018054600181600116156101000203166002900480601f0160208091040260200160405190810160405280929190818152602001828054600181600116156101000203166002900480156132665780601f1061323b57610100808354040283529160200191613266565b820191906000526020600020905b81548152906001019060200180831161324957829003601f168201915b50505050509250600260008973ffffffffffffffffffffffffffffffffffffffff1673ffffffffffffffffffffffffffffffffffffffff168152602001908152602001600020600501878154811015156132bc57fe5b90600052602060002090600502016003018054600181600116156101000203166002900480601f0160208091040260200160405190810160405280929190818152602001828054600181600116156101000203166002900480156133615780601f1061333657610100808354040283529160200191613361565b820191906000526020600020905b81548152906001019060200180831161334457829003601f168201915b50505050509150600260008973ffffffffffffffffffffffffffffffffffffffff1673ffffffffffffffffffffffffffffffffffffffff168152602001908152602001600020600501878154811015156133b757fe5b90600052602060002090600502016004018054600181600116156101000203166002900480601f01602080910402602001604051908101604052809291908181526020018280546001816001161561010002031660029004801561345c5780601f106134315761010080835404028352916020019161345c565b820191906000526020600020905b81548152906001019060200180831161343f57829003601f168201915b505050505090509295509295509295565b60038181548110151561347c57fe5b906000526020600020016000915054906101000a900473ffffffffffffffffffffffffffffffffffffffff1681565b6060600260003373ffffffffffffffffffffffffffffffffffffffff1673ffffffffffffffffffffffffffffffffffffffff16815260200190815260200160002060000160009054906101000a900460ff161515613571576040517f08c379a00000000000000000000000000000000000000000000000000000000081526004018080602001828103825260168152602001807f50617469656e74204e6f7420526567697374657265640000000000000000000081525060200191505060405180910390fd5b600060038054905090506060816040519080825280602002602001820160405280156135ac5781602001602082028038833980820191505090505b50905060008090505b6135bd6128bb565b81101561372457600260003373ffffffffffffffffffffffffffffffffffffffff1673ffffffffffffffffffffffffffffffffffffffff168152602001908152602001600020600401600060038381548110151561361757fe5b9060005260206000200160009054906101000a900473ffffffffffffffffffffffffffffffffffffffff1673ffffffffffffffffffffffffffffffffffffffff1673ffffffffffffffffffffffffffffffffffffffff16815260200190815260200160002060000160019054906101000a900460ff1615613717576003818154811015156136a157fe5b9060005260206000200160009054906101000a900473ffffffffffffffffffffffffffffffffffffffff1682828151811015156136da57fe5b9060200190602002019073ffffffffffffffffffffffffffffffffffffffff16908173ffffffffffffffffffffffffffffffffffffffff16815250505b80806001019150506135b5565b50809250505090565b6000600260003373ffffffffffffffffffffffffffffffffffffffff1673ffffffffffffffffffffffffffffffffffffffff16815260200190815260200160002060000160009054906101000a900460ff161515156137f4576040517f08c379a00000000000000000000000000000000000000000000000000000000081526004018080602001828103825260158152602001807f50617469656e7420416c7265616479206578697374000000000000000000000081525060200191505060405180910390fd5b6001600260003373ffffffffffffffffffffffffffffffffffffffff1673ffffffffffffffffffffffffffffffffffffffff16815260200190815260200160002060000160006101000a81548160ff02191690831515021790555083600260003373ffffffffffffffffffffffffffffffffffffffff1673ffffffffffffffffffffffffffffffffffffffff16815260200190815260200160002060010190805190602001906138a59291906143a3565b5082600260003373ffffffffffffffffffffffffffffffffffffffff1673ffffffffffffffffffffffffffffffffffffffff16815260200190815260200160002060020190805190602001906138fc9291906143a3565b5081600260003373ffffffffffffffffffffffffffffffffffffffff1673ffffffffffffffffffffffffffffffffffffffff16815260200190815260200160002060030190805190602001906139539291906143a3565b5060043390806001815401808255809150509060018203906000526020600020016000909192909190916101000a81548173ffffffffffffffffffffffffffffffffffffffff021916908373ffffffffffffffffffffffffffffffffffffffff16021790555050600190509392505050565b60008060009054906101000a900473ffffffffffffffffffffffffffffffffffffffff1673ffffffffffffffffffffffffffffffffffffffff163373ffffffffffffffffffffffffffffffffffffffff16141515613a2257600080fd5b600160008473ffffffffffffffffffffffffffffffffffffffff1673ffffffffffffffffffffffffffffffffffffffff16815260200190815260200160002060000160009054906101000a900460ff16151515613ae7576040517f08c379a00000000000000000000000000000000000000000000000000000000081526004018080602001828103825260148152602001807f446f6374657220416c726561647920657869737400000000000000000000000081525060200191505060405180910390fd5b81600160008573ffffffffffffffffffffffffffffffffffffffff1673ffffffffffffffffffffffffffffffffffffffff1681526020019081526020016000206001019080519060200190613b3d9291906143a3565b5060018060008573ffffffffffffffffffffffffffffffffffffffff1673ffffffffffffffffffffffffffffffffffffffff16815260200190815260200160002060000160006101000a81548160ff02191690831515021790555060038390806001815401808255809150509060018203906000526020600020016000909192909190916101000a81548173ffffffffffffffffffffffffffffffffffffffff021916908373ffffffffffffffffffffffffffffffffffffffff160217905550506001905092915050565b6000600480549050905090565b6000600160003373ffffffffffffffffffffffffffffffffffffffff1673ffffffffffffffffffffffffffffffffffffffff16815260200190815260200160002060000160009054906101000a900460ff161515613d01576040517f08c379a000000000000000000000000000000000000000000000000000000000815260040180806020018281038252602c8152602001807f446f6374657220646f6573206e6f742065786973742e20706c6561736520726581526020017f676973746572206669727374000000000000000000000000000000000000000081525060400191505060405180910390fd5b600260008773ffffffffffffffffffffffffffffffffffffffff1673ffffffffffffffffffffffffffffffffffffffff16815260200190815260200160002060000160009054906101000a900460ff161515613dc5576040517f08c379a000000000000000000000000000000000000000000000000000000000815260040180806020018281038252601e8152602001807f50617469656e74207265636f726420646f6573206e6f742065786973742e000081525060200191505060405180910390fd5b600260008773ffffffffffffffffffffffffffffffffffffffff1673ffffffffffffffffffffffffffffffffffffffff16815260200190815260200160002060040160003373ffffffffffffffffffffffffffffffffffffffff1673ffffffffffffffffffffffffffffffffffffffff16815260200190815260200160002060000160009054906101000a900460ff161515613ec9576040517f08c379a000000000000000000000000000000000000000000000000000000000815260040180806020018281038252601b8152602001807f446f6374657220646f206e6f742068617320616363657373202121000000000081525060200191505060405180910390fd5b613ed1614423565b60a0604051908101604052808781526020013373ffffffffffffffffffffffffffffffffffffffff168152602001868152602001858152602001848152509050600260008873ffffffffffffffffffffffffffffffffffffffff1673ffffffffffffffffffffffffffffffffffffffff16815260200190815260200160002060050181908060018154018082558091505090600182039060005260206000209060050201600090919290919091506000820151816000019080519060200190613f9b929190614469565b5060208201518160010160006101000a81548173ffffffffffffffffffffffffffffffffffffffff021916908373ffffffffffffffffffffffffffffffffffffffff1602179055506040820151816002019080519060200190613fff929190614469565b50606082015181600301908051906020019061401c929190614469565b506080820151816004019080519060200190614039929190614469565b50505050600191505095945050505050565b6000600160008373ffffffffffffffffffffffffffffffffffffffff1673ffffffffffffffffffffffffffffffffffffffff16815260200190815260200160002060000160009054906101000a900460ff161515614111576040517f08c379a00000000000000000000000000000000000000000000000000000000081526004018080602001828103825260158152602001807f446f6374657220646f6573206e6f74206578697374000000000000000000000081525060200191505060405180910390fd5b600260003373ffffffffffffffffffffffffffffffffffffffff1673ffffffffffffffffffffffffffffffffffffffff16815260200190815260200160002060000160009054906101000a900460ff1615156141fb576040517f08c379a00000000000000000000000000000000000000000000000000000000081526004018080602001828103825260358152602001807f50617469656e74207265636f726420646f6573206e6f742065786973742e506c81526020017f656173652072656769737465722066697273742121000000000000000000000081525060400191505060405180910390fd5b600260003373ffffffffffffffffffffffffffffffffffffffff1673ffffffffffffffffffffffffffffffffffffffff16815260200190815260200160002060040160008373ffffffffffffffffffffffffffffffffffffffff1673ffffffffffffffffffffffffffffffffffffffff16815260200190815260200160002060000160019054906101000a900460ff1615156142ff576040517f08c379a000000000000000000000000000000000000000000000000000000000815260040180806020018281038252601b8152602001807f446f6374657220646f206e6f742068617320616363657373202121000000000081525060200191505060405180910390fd5b6000600260003373ffffffffffffffffffffffffffffffffffffffff1673ffffffffffffffffffffffffffffffffffffffff16815260200190815260200160002060040160008473ffffffffffffffffffffffffffffffffffffffff1673ffffffffffffffffffffffffffffffffffffffff16815260200190815260200160002060000160016101000a81548160ff02191690831515021790555060019050919050565b828054600181600116156101000203166002900490600052602060002090601f016020900481019282601f106143e457805160ff1916838001178555614412565b82800160010185558215614412579182015b828111156144115782518255916020019190600101906143f6565b5b50905061441f91906144e9565b5090565b60a06040519081016040528060608152602001600073ffffffffffffffffffffffffffffffffffffffff1681526020016060815260200160608152602001606081525090565b828054600181600116156101000203166002900490600052602060002090601f016020900481019282601f106144aa57805160ff19168380011785556144d8565b828001600101855582156144d8579182015b828111156144d75782518255916020019190600101906144bc565b5b5090506144e591906144e9565b5090565b61450b91905b808211156145075760008160009055506001016144ef565b5090565b9056fea165627a7a72305820d34203080ec9fa9416f359a8e6c161c752bed400061306d854d39935e7191b3e0029",
  "source": "pragma solidity 0.5.0;\n\ncontract Health {\n\n  struct docter {\n    bool exist;\n    string name;\n\n  }\n\n  struct record{\n\n    string prescriptionData;\n    address docterAddress;\n    string visitDate;\n    string additionalNotes;\n    string fromPlace; // location clinic\n  }\n\n  struct access{\n    bool createOnly;\n    bool viewOnly;\n  }\n\n\n  struct patient {\n    bool exist;\n    string name;\n    string DOB;\n    string gender;\n    mapping(address => access) docters;\n\n    record[] records;\n  }\n\n  address government;\n\n  mapping(address => docter) public docters;\n  mapping(address => patient)  patients;\n\n  address[] public doctersArray;\n  address[] public patientsArray;\n\n  modifier onlyGovernment() {\n    require(msg.sender == government);\n    _;\n  }\n\n  constructor()public{\n    government = msg.sender;\n  }\n\n  function addDocter(address _addr,string memory _name) public onlyGovernment returns (bool) {   // Government can only add docter\n    require(!docters[_addr].exist,'Docter Already exist');\n\n    docters[_addr].name = _name;\n    docters[_addr].exist = true;\n\n    doctersArray.push(_addr);\n    return true;\n\n  }\n\n  function removeDocter(address _addr) public onlyGovernment returns (bool) {// Government can only remove docter\n    require(docters[_addr].exist,'Docter does not exist');\n\n    docters[_addr].exist = false;\n\n    return true;\n\n  }\n\n  function registerPatient(string memory _name,string memory _DOB,string memory _gender) public  returns (bool) {    // any one can register as a patient\n    require(!patients[msg.sender].exist,'Patient Already exist');\n\n    patients[msg.sender].exist = true;\n    patients[msg.sender].name = _name;\n    patients[msg.sender].DOB = _DOB;\n    patients[msg.sender].gender = _gender;\n\n    patientsArray.push(msg.sender);\n\n\n    return true;\n\n  }\n\n\n  function giveCreateOnlyAccessToDocter(address _addr) public  returns (bool) {  //patient give access to docter\n    require(docters[_addr].exist,'Docter does not exist');\n    require(patients[msg.sender].exist,'Patient record does not exist.Please register first!!');\n    require(!patients[msg.sender].docters[_addr].createOnly,'Docter already has access !!');\n\n    patients[msg.sender].docters[_addr].createOnly = true;\n\n    return true;\n  }\n\n  function revokeCreateOnlyAccessToDocter(address _addr) public  returns (bool) {  //patient revoke access to docter\n    require(docters[_addr].exist,'Docter does not exist');\n    require(patients[msg.sender].exist,'Patient record does not exist.Please register first!!');\n    require(patients[msg.sender].docters[_addr].createOnly,'Docter do not has access !!');\n\n    patients[msg.sender].docters[_addr].createOnly = false;\n\n    return true;\n  }\n\n  function giveViewOnlyAccessToDocter(address _addr) public  returns (bool) {  //patient give  view access to docter\n    require(docters[_addr].exist,'Docter does not exist');\n    require(patients[msg.sender].exist,'Patient record does not exist.Please register first!!');\n    require(!patients[msg.sender].docters[_addr].viewOnly,'Docter already has access !!');\n\n    patients[msg.sender].docters[_addr].viewOnly = true;\n\n    return true;\n  }\n\n  function revokeViewOnlyAccessToDocter(address _addr) public  returns (bool) {  //patient  view revoke access to docter\n    require(docters[_addr].exist,'Docter does not exist');\n    require(patients[msg.sender].exist,'Patient record does not exist.Please register first!!');\n    require(patients[msg.sender].docters[_addr].viewOnly,'Docter do not has access !!');\n\n    patients[msg.sender].docters[_addr].viewOnly = false;\n\n    return true;\n  }\n\n  function addPrescriptionForPatient(address _addr, string memory _prescription,string memory _visitDate,string memory _additionalNotes, string memory _fromPlace) public  returns (bool) {  //docter adds prescription for patient\n    require(docters[msg.sender].exist,'Docter does not exist. please register first');\n    require(patients[_addr].exist,'Patient record does not exist.');\n    require(patients[_addr].docters[msg.sender].createOnly,'Docter do not has access !!');\n\n\n    record memory newRecord = record({\n\n      prescriptionData:_prescription,\n      docterAddress:msg.sender,\n      visitDate:_visitDate,\n      additionalNotes:_additionalNotes,\n      fromPlace:_fromPlace\n      });\n\n    patients[_addr].records.push(newRecord);\n\n    return true;\n  }\n\n\n  function getDoctersCount() public view returns(uint count) {\n    return doctersArray.length;\n  }\n\n\n  function getPatientsCount() public view returns(uint count) {\n    return patientsArray.length;\n  }\n\n\n\n  function getPatientsWithCreateOnlyAccess() public view  returns(address[] memory _patients) { // docter can get all patients with create record access\n    require(docters[msg.sender].exist,'Docter Not Registered');\n\n    uint  count = patientsArray.length;\n\n    address[] memory dataList = new address[](count);\n\n    for( uint i = 0 ; i < getPatientsCount() ; i++){\n\n      if(patients[patientsArray[i]].docters[msg.sender].createOnly){\n\n        dataList[i] = patientsArray[i];\n\n      }\n    }\n    return dataList;\n\n  }\n\n  function getPatientsWithViewOnlyAccess() public view  returns(address[] memory _patients) { // docter can get all patients with viewOnly access\n    require(docters[msg.sender].exist,'Docter Not Registered');\n\n\n    uint  count = patientsArray.length;\n\n    address[] memory dataList = new address[](count);\n\n    for( uint i = 0 ; i < getPatientsCount() ; i++){\n\n      if(patients[patientsArray[i]].docters[msg.sender].viewOnly){\n\n        dataList[i] = patientsArray[i];\n\n      }\n    }\n    return dataList;\n\n  }\n\n\n  function getDoctersWithViewOnlyAccess() public view  returns(address[] memory _docters) { // patients can get all docter that have their view access\n    require(patients[msg.sender].exist,'Patient Not Registered');\n\n    uint  count = doctersArray.length;\n\n    address[] memory dataList = new address[](count);\n\n    for( uint i = 0 ; i < getDoctersCount() ; i++){\n\n      if(patients[msg.sender].docters[doctersArray[i]].viewOnly){\n\n        dataList[i] = doctersArray[i];\n      }\n    }\n    return dataList;\n\n  }\n\n  function getDoctersWithCreateOnlyAccess() public view  returns(address[] memory ) { // patients can get all docter that have their create record access\n    require(patients[msg.sender].exist,'Patient Not Registered');\n\n    uint  count = doctersArray.length;\n\n    address[] memory dataList = new address[](count);\n\n    for( uint i = 0 ; i < getDoctersCount() ; i++){\n\n      if(patients[msg.sender].docters[doctersArray[i]].createOnly){\n\n        dataList[i] = doctersArray[i];\n      }\n    }\n    return dataList;\n  }\n\n\n  function getPatients(address _addr) public view returns(string memory _name,string memory _DOB,string memory _gender) {\n    require(patients[_addr].exist,'Patient record does not exist.Please register first!!');\n    require(patients[_addr].docters[msg.sender].viewOnly || _addr == msg.sender,'Do not has view access !!');\n\n    _name = patients[_addr].name;\n    _gender = patients[_addr].gender;\n    _DOB = patients[_addr].DOB;\n\n  }\n\n\n  function getPatientsRecordsCount(address _addr) public view returns(uint count) {  // can be viewed by patient himself and docter who has view access\n    require(patients[_addr].exist,'Patient record does not exist.Please register first!!');\n    require(patients[_addr].docters[msg.sender].viewOnly ||  _addr == msg.sender,'Do not has view access  !!');\n    return patients[_addr].records.length;\n  }\n\n  function getPatientsRecords(address _addr,uint256 index) public view returns(string memory _prescriptionData,\n    address _docterAddress,string memory _docterName,string memory _visitDate,string memory _additionalNotes,string memory _fromPlace) {   // can be viewed by patient himself and docter who has view access\n    require(patients[_addr].exist,'Patient record does not exist.Please register first!!');\n    require(patients[_addr].docters[msg.sender].viewOnly || _addr == msg.sender,'Do not has view access !!');\n\n    _prescriptionData =  patients[_addr].records[index].prescriptionData;\n    _docterAddress =  patients[_addr].records[index].docterAddress;\n    _docterName =  docters[_docterAddress].name;\n    _visitDate =  patients[_addr].records[index].visitDate;\n    _additionalNotes =  patients[_addr].records[index].additionalNotes;\n    _fromPlace =  patients[_addr].records[index].fromPlace;\n  }\n\n\n}\n",
  "sourcePath": "/Users/sidharth/Documents/mywork/angulartruffledapp/Blockchain/contracts/Health.sol",
  "compiler": {
    "name": "solc",
    "version": "0.5.0+commit.1d4f565a.Emscripten.clang"
  },
  "schemaVersion": "3.0.10",
  "updatedAt": "2019-06-13T20:06:38.415Z",
  "devdoc": {
    "methods": {}
  },
  "userdoc": {
    "methods": {}
  }
}